{
  "contractName": "swapassets",
  "abi": [
    {
      "inputs": [],
      "stateMutability": "nonpayable",
      "type": "constructor"
    },
    {
      "inputs": [
        {
          "internalType": "address",
          "name": "sender",
          "type": "address"
        },
        {
          "internalType": "uint256",
          "name": "tokenId",
          "type": "uint256"
        },
        {
          "internalType": "address",
          "name": "owner",
          "type": "address"
        }
      ],
      "name": "ERC721IncorrectOwner",
      "type": "error"
    },
    {
      "inputs": [
        {
          "internalType": "address",
          "name": "operator",
          "type": "address"
        },
        {
          "internalType": "uint256",
          "name": "tokenId",
          "type": "uint256"
        }
      ],
      "name": "ERC721InsufficientApproval",
      "type": "error"
    },
    {
      "inputs": [
        {
          "internalType": "address",
          "name": "approver",
          "type": "address"
        }
      ],
      "name": "ERC721InvalidApprover",
      "type": "error"
    },
    {
      "inputs": [
        {
          "internalType": "address",
          "name": "operator",
          "type": "address"
        }
      ],
      "name": "ERC721InvalidOperator",
      "type": "error"
    },
    {
      "inputs": [
        {
          "internalType": "address",
          "name": "owner",
          "type": "address"
        }
      ],
      "name": "ERC721InvalidOwner",
      "type": "error"
    },
    {
      "inputs": [
        {
          "internalType": "address",
          "name": "receiver",
          "type": "address"
        }
      ],
      "name": "ERC721InvalidReceiver",
      "type": "error"
    },
    {
      "inputs": [
        {
          "internalType": "address",
          "name": "sender",
          "type": "address"
        }
      ],
      "name": "ERC721InvalidSender",
      "type": "error"
    },
    {
      "inputs": [
        {
          "internalType": "uint256",
          "name": "tokenId",
          "type": "uint256"
        }
      ],
      "name": "ERC721NonexistentToken",
      "type": "error"
    },
    {
      "inputs": [
        {
          "internalType": "address",
          "name": "owner",
          "type": "address"
        }
      ],
      "name": "OwnableInvalidOwner",
      "type": "error"
    },
    {
      "inputs": [
        {
          "internalType": "address",
          "name": "account",
          "type": "address"
        }
      ],
      "name": "OwnableUnauthorizedAccount",
      "type": "error"
    },
    {
      "anonymous": false,
      "inputs": [
        {
          "indexed": true,
          "internalType": "address",
          "name": "owner",
          "type": "address"
        },
        {
          "indexed": true,
          "internalType": "address",
          "name": "approved",
          "type": "address"
        },
        {
          "indexed": true,
          "internalType": "uint256",
          "name": "tokenId",
          "type": "uint256"
        }
      ],
      "name": "Approval",
      "type": "event"
    },
    {
      "anonymous": false,
      "inputs": [
        {
          "indexed": true,
          "internalType": "address",
          "name": "owner",
          "type": "address"
        },
        {
          "indexed": true,
          "internalType": "address",
          "name": "operator",
          "type": "address"
        },
        {
          "indexed": false,
          "internalType": "bool",
          "name": "approved",
          "type": "bool"
        }
      ],
      "name": "ApprovalForAll",
      "type": "event"
    },
    {
      "anonymous": false,
      "inputs": [
        {
          "indexed": true,
          "internalType": "address",
          "name": "previousOwner",
          "type": "address"
        },
        {
          "indexed": true,
          "internalType": "address",
          "name": "newOwner",
          "type": "address"
        }
      ],
      "name": "OwnershipTransferred",
      "type": "event"
    },
    {
      "anonymous": false,
      "inputs": [
        {
          "indexed": true,
          "internalType": "address",
          "name": "from",
          "type": "address"
        },
        {
          "indexed": true,
          "internalType": "address",
          "name": "to",
          "type": "address"
        },
        {
          "indexed": true,
          "internalType": "uint256",
          "name": "tokenId",
          "type": "uint256"
        }
      ],
      "name": "Transfer",
      "type": "event"
    },
    {
      "inputs": [
        {
          "internalType": "uint256",
          "name": "",
          "type": "uint256"
        }
      ],
      "name": "allTokensInfos",
      "outputs": [
        {
          "internalType": "uint256",
          "name": "tokenId",
          "type": "uint256"
        },
        {
          "internalType": "uint256",
          "name": "assetType",
          "type": "uint256"
        },
        {
          "internalType": "int8",
          "name": "xPosition",
          "type": "int8"
        },
        {
          "internalType": "int8",
          "name": "yPosition",
          "type": "int8"
        }
      ],
      "stateMutability": "view",
      "type": "function"
    },
    {
      "inputs": [
        {
          "internalType": "address",
          "name": "to",
          "type": "address"
        },
        {
          "internalType": "uint256",
          "name": "tokenId",
          "type": "uint256"
        }
      ],
      "name": "approve",
      "outputs": [],
      "stateMutability": "nonpayable",
      "type": "function"
    },
    {
      "inputs": [
        {
          "internalType": "address",
          "name": "owner",
          "type": "address"
        }
      ],
      "name": "balanceOf",
      "outputs": [
        {
          "internalType": "uint256",
          "name": "",
          "type": "uint256"
        }
      ],
      "stateMutability": "view",
      "type": "function"
    },
    {
      "inputs": [
        {
          "internalType": "uint256",
          "name": "tokenId",
          "type": "uint256"
        }
      ],
      "name": "getApproved",
      "outputs": [
        {
          "internalType": "address",
          "name": "",
          "type": "address"
        }
      ],
      "stateMutability": "view",
      "type": "function"
    },
    {
      "inputs": [
        {
          "internalType": "address",
          "name": "owner",
          "type": "address"
        },
        {
          "internalType": "address",
          "name": "operator",
          "type": "address"
        }
      ],
      "name": "isApprovedForAll",
      "outputs": [
        {
          "internalType": "bool",
          "name": "",
          "type": "bool"
        }
      ],
      "stateMutability": "view",
      "type": "function"
    },
    {
      "inputs": [],
      "name": "name",
      "outputs": [
        {
          "internalType": "string",
          "name": "",
          "type": "string"
        }
      ],
      "stateMutability": "view",
      "type": "function"
    },
    {
      "inputs": [
        {
          "internalType": "address",
          "name": "",
          "type": "address"
        },
        {
          "internalType": "uint256",
          "name": "",
          "type": "uint256"
        }
      ],
      "name": "nftsOwned",
      "outputs": [
        {
          "internalType": "uint256",
          "name": "",
          "type": "uint256"
        }
      ],
      "stateMutability": "view",
      "type": "function"
    },
    {
      "inputs": [
        {
          "internalType": "uint256",
          "name": "",
          "type": "uint256"
        },
        {
          "internalType": "address",
          "name": "",
          "type": "address"
        }
      ],
      "name": "nftsOwners",
      "outputs": [
        {
          "internalType": "bool",
          "name": "isOwner",
          "type": "bool"
        },
        {
          "internalType": "address payable",
          "name": "owner",
          "type": "address"
        },
        {
          "internalType": "uint256",
          "name": "shares",
          "type": "uint256"
        },
        {
          "internalType": "uint256",
          "name": "sharesForSelling",
          "type": "uint256"
        },
        {
          "internalType": "uint256",
          "name": "numTicket",
          "type": "uint256"
        }
      ],
      "stateMutability": "view",
      "type": "function"
    },
    {
      "inputs": [],
      "name": "owner",
      "outputs": [
        {
          "internalType": "address",
          "name": "",
          "type": "address"
        }
      ],
      "stateMutability": "view",
      "type": "function"
    },
    {
      "inputs": [
        {
          "internalType": "uint256",
          "name": "tokenId",
          "type": "uint256"
        }
      ],
      "name": "ownerOf",
      "outputs": [
        {
          "internalType": "address",
          "name": "",
          "type": "address"
        }
      ],
      "stateMutability": "view",
      "type": "function"
    },
    {
      "inputs": [
        {
          "internalType": "uint256",
          "name": "",
          "type": "uint256"
        },
        {
          "internalType": "uint256",
          "name": "",
          "type": "uint256"
        }
      ],
      "name": "ownersList",
      "outputs": [
        {
          "internalType": "address",
          "name": "",
          "type": "address"
        }
      ],
      "stateMutability": "view",
      "type": "function"
    },
    {
      "inputs": [
        {
          "internalType": "uint256",
          "name": "",
          "type": "uint256"
        },
        {
          "internalType": "address",
          "name": "",
          "type": "address"
        },
        {
          "internalType": "uint256",
          "name": "",
          "type": "uint256"
        }
      ],
      "name": "ownersSalesTicketsList",
      "outputs": [
        {
          "internalType": "uint256",
          "name": "",
          "type": "uint256"
        }
      ],
      "stateMutability": "view",
      "type": "function"
    },
    {
      "inputs": [],
      "name": "renounceOwnership",
      "outputs": [],
      "stateMutability": "nonpayable",
      "type": "function"
    },
    {
      "inputs": [
        {
          "internalType": "address",
          "name": "from",
          "type": "address"
        },
        {
          "internalType": "address",
          "name": "to",
          "type": "address"
        },
        {
          "internalType": "uint256",
          "name": "tokenId",
          "type": "uint256"
        }
      ],
      "name": "safeTransferFrom",
      "outputs": [],
      "stateMutability": "nonpayable",
      "type": "function"
    },
    {
      "inputs": [
        {
          "internalType": "address",
          "name": "from",
          "type": "address"
        },
        {
          "internalType": "address",
          "name": "to",
          "type": "address"
        },
        {
          "internalType": "uint256",
          "name": "tokenId",
          "type": "uint256"
        },
        {
          "internalType": "bytes",
          "name": "data",
          "type": "bytes"
        }
      ],
      "name": "safeTransferFrom",
      "outputs": [],
      "stateMutability": "nonpayable",
      "type": "function"
    },
    {
      "inputs": [
        {
          "internalType": "uint256",
          "name": "",
          "type": "uint256"
        },
        {
          "internalType": "address",
          "name": "",
          "type": "address"
        },
        {
          "internalType": "uint256",
          "name": "",
          "type": "uint256"
        }
      ],
      "name": "salesListing",
      "outputs": [
        {
          "internalType": "address payable",
          "name": "owner",
          "type": "address"
        },
        {
          "internalType": "uint256",
          "name": "saleTicketNumber",
          "type": "uint256"
        },
        {
          "internalType": "uint256",
          "name": "price",
          "type": "uint256"
        },
        {
          "internalType": "uint256",
          "name": "sharesToSell",
          "type": "uint256"
        },
        {
          "internalType": "bool",
          "name": "currentlyForSale",
          "type": "bool"
        }
      ],
      "stateMutability": "view",
      "type": "function"
    },
    {
      "inputs": [
        {
          "internalType": "address",
          "name": "operator",
          "type": "address"
        },
        {
          "internalType": "bool",
          "name": "approved",
          "type": "bool"
        }
      ],
      "name": "setApprovalForAll",
      "outputs": [],
      "stateMutability": "nonpayable",
      "type": "function"
    },
    {
      "inputs": [
        {
          "internalType": "bytes4",
          "name": "interfaceId",
          "type": "bytes4"
        }
      ],
      "name": "supportsInterface",
      "outputs": [
        {
          "internalType": "bool",
          "name": "",
          "type": "bool"
        }
      ],
      "stateMutability": "view",
      "type": "function"
    },
    {
      "inputs": [],
      "name": "symbol",
      "outputs": [
        {
          "internalType": "string",
          "name": "",
          "type": "string"
        }
      ],
      "stateMutability": "view",
      "type": "function"
    },
    {
      "inputs": [
        {
          "internalType": "uint256",
          "name": "tokenId",
          "type": "uint256"
        }
      ],
      "name": "tokenURI",
      "outputs": [
        {
          "internalType": "string",
          "name": "",
          "type": "string"
        }
      ],
      "stateMutability": "view",
      "type": "function"
    },
    {
      "inputs": [
        {
          "internalType": "address",
          "name": "from",
          "type": "address"
        },
        {
          "internalType": "address",
          "name": "to",
          "type": "address"
        },
        {
          "internalType": "uint256",
          "name": "tokenId",
          "type": "uint256"
        }
      ],
      "name": "transferFrom",
      "outputs": [],
      "stateMutability": "nonpayable",
      "type": "function"
    },
    {
      "inputs": [
        {
          "internalType": "address",
          "name": "newOwner",
          "type": "address"
        }
      ],
      "name": "transferOwnership",
      "outputs": [],
      "stateMutability": "nonpayable",
      "type": "function"
    },
    {
      "inputs": [
        {
          "internalType": "address payable",
          "name": "_to",
          "type": "address"
        },
        {
          "internalType": "uint256",
          "name": "_assetType",
          "type": "uint256"
        },
        {
          "internalType": "int8",
          "name": "_xPosition",
          "type": "int8"
        },
        {
          "internalType": "int8",
          "name": "_yPosition",
          "type": "int8"
        }
      ],
      "name": "mint",
      "outputs": [],
      "stateMutability": "nonpayable",
      "type": "function"
    },
    {
      "inputs": [
        {
          "internalType": "uint256",
          "name": "_tokenId",
          "type": "uint256"
        },
        {
          "internalType": "uint256",
          "name": "_price",
          "type": "uint256"
        },
        {
          "internalType": "uint256",
          "name": "_sharesToSell",
          "type": "uint256"
        }
      ],
      "name": "listToExchange",
      "outputs": [],
      "stateMutability": "nonpayable",
      "type": "function"
    },
    {
      "inputs": [
        {
          "internalType": "uint256",
          "name": "_tokenId",
          "type": "uint256"
        },
        {
          "internalType": "address",
          "name": "_sellerAddress",
          "type": "address"
        },
        {
          "internalType": "uint256",
          "name": "_saleTicket",
          "type": "uint256"
        }
      ],
      "name": "buyNFT",
      "outputs": [],
      "stateMutability": "payable",
      "type": "function"
    },
    {
      "inputs": [
        {
          "internalType": "uint256",
          "name": "_tokenId",
          "type": "uint256"
        },
        {
          "internalType": "uint256",
          "name": "_saleNumber",
          "type": "uint256"
        }
      ],
      "name": "cancelSale",
      "outputs": [],
      "stateMutability": "nonpayable",
      "type": "function"
    },
    {
      "inputs": [],
      "name": "getTotalNumberOfNfts",
      "outputs": [
        {
          "internalType": "uint256",
          "name": "",
          "type": "uint256"
        }
      ],
      "stateMutability": "view",
      "type": "function"
    },
    {
      "inputs": [],
      "name": "getAllNFTsInfos",
      "outputs": [
        {
          "components": [
            {
              "internalType": "uint256",
              "name": "tokenId",
              "type": "uint256"
            },
            {
              "internalType": "uint256",
              "name": "assetType",
              "type": "uint256"
            },
            {
              "internalType": "int8",
              "name": "xPosition",
              "type": "int8"
            },
            {
              "internalType": "int8",
              "name": "yPosition",
              "type": "int8"
            }
          ],
          "internalType": "struct swapassets.TokenInfos[]",
          "name": "",
          "type": "tuple[]"
        }
      ],
      "stateMutability": "view",
      "type": "function"
    },
    {
      "inputs": [
        {
          "internalType": "uint256",
          "name": "_tokenId",
          "type": "uint256"
        }
      ],
      "name": "getTokenInfoForId",
      "outputs": [
        {
          "components": [
            {
              "internalType": "uint256",
              "name": "tokenId",
              "type": "uint256"
            },
            {
              "internalType": "uint256",
              "name": "assetType",
              "type": "uint256"
            },
            {
              "internalType": "int8",
              "name": "xPosition",
              "type": "int8"
            },
            {
              "internalType": "int8",
              "name": "yPosition",
              "type": "int8"
            }
          ],
          "internalType": "struct swapassets.TokenInfos",
          "name": "",
          "type": "tuple"
        }
      ],
      "stateMutability": "view",
      "type": "function"
    },
    {
      "inputs": [
        {
          "internalType": "uint256",
          "name": "_tokenId",
          "type": "uint256"
        }
      ],
      "name": "getNftOwnerList",
      "outputs": [
        {
          "internalType": "address[]",
          "name": "",
          "type": "address[]"
        }
      ],
      "stateMutability": "view",
      "type": "function"
    },
    {
      "inputs": [
        {
          "internalType": "uint256",
          "name": "_tokenId",
          "type": "uint256"
        }
      ],
      "name": "getNftsOwners",
      "outputs": [
        {
          "components": [
            {
              "internalType": "bool",
              "name": "isOwner",
              "type": "bool"
            },
            {
              "internalType": "address payable",
              "name": "owner",
              "type": "address"
            },
            {
              "internalType": "uint256",
              "name": "shares",
              "type": "uint256"
            },
            {
              "internalType": "uint256",
              "name": "sharesForSelling",
              "type": "uint256"
            },
            {
              "internalType": "uint256",
              "name": "numTicket",
              "type": "uint256"
            }
          ],
          "internalType": "struct swapassets.OwnerInfos[]",
          "name": "",
          "type": "tuple[]"
        }
      ],
      "stateMutability": "view",
      "type": "function"
    },
    {
      "inputs": [
        {
          "internalType": "uint256",
          "name": "_tokenId",
          "type": "uint256"
        },
        {
          "internalType": "address",
          "name": "_owner",
          "type": "address"
        }
      ],
      "name": "getOwnerInfos",
      "outputs": [
        {
          "components": [
            {
              "internalType": "bool",
              "name": "isOwner",
              "type": "bool"
            },
            {
              "internalType": "address payable",
              "name": "owner",
              "type": "address"
            },
            {
              "internalType": "uint256",
              "name": "shares",
              "type": "uint256"
            },
            {
              "internalType": "uint256",
              "name": "sharesForSelling",
              "type": "uint256"
            },
            {
              "internalType": "uint256",
              "name": "numTicket",
              "type": "uint256"
            }
          ],
          "internalType": "struct swapassets.OwnerInfos",
          "name": "",
          "type": "tuple"
        }
      ],
      "stateMutability": "view",
      "type": "function"
    },
    {
      "inputs": [
        {
          "internalType": "uint256",
          "name": "_tokenId",
          "type": "uint256"
        }
      ],
      "name": "getNumberOfOwners",
      "outputs": [
        {
          "internalType": "uint256",
          "name": "",
          "type": "uint256"
        }
      ],
      "stateMutability": "view",
      "type": "function"
    },
    {
      "inputs": [
        {
          "internalType": "uint256",
          "name": "_tokenId",
          "type": "uint256"
        },
        {
          "internalType": "address",
          "name": "_owner",
          "type": "address"
        }
      ],
      "name": "getSalesInfos",
      "outputs": [
        {
          "components": [
            {
              "internalType": "address payable",
              "name": "owner",
              "type": "address"
            },
            {
              "internalType": "uint256",
              "name": "saleTicketNumber",
              "type": "uint256"
            },
            {
              "internalType": "uint256",
              "name": "price",
              "type": "uint256"
            },
            {
              "internalType": "uint256",
              "name": "sharesToSell",
              "type": "uint256"
            },
            {
              "internalType": "bool",
              "name": "currentlyForSale",
              "type": "bool"
            }
          ],
          "internalType": "struct swapassets.SaleInfos[]",
          "name": "",
          "type": "tuple[]"
        }
      ],
      "stateMutability": "view",
      "type": "function"
    },
    {
      "inputs": [
        {
          "internalType": "uint256",
          "name": "_tokenId",
          "type": "uint256"
        },
        {
          "internalType": "address",
          "name": "_owner",
          "type": "address"
        }
      ],
      "name": "getNumberSalesOwner",
      "outputs": [
        {
          "internalType": "uint256",
          "name": "",
          "type": "uint256"
        }
      ],
      "stateMutability": "view",
      "type": "function"
    },
    {
      "inputs": [
        {
          "internalType": "uint256",
          "name": "_tokenId",
          "type": "uint256"
        }
      ],
      "name": "getTotalNumberOfTicketsForNft",
      "outputs": [
        {
          "internalType": "uint256",
          "name": "",
          "type": "uint256"
        }
      ],
      "stateMutability": "view",
      "type": "function"
    },
    {
      "inputs": [
        {
          "internalType": "address",
          "name": "_owner",
          "type": "address"
        }
      ],
      "name": "getListOfNftsOwned",
      "outputs": [
        {
          "internalType": "uint256[]",
          "name": "",
          "type": "uint256[]"
        }
      ],
      "stateMutability": "view",
      "type": "function"
    }
  ],
  "bytecode": "0x608060405234801562000010575f80fd5b50336040518060400160405280601781526020017f546f6b656e69736174696f6e4d61726b6574706c6163650000000000000000008152506040518060400160405280600481526020017f544d4b5000000000000000000000000000000000000000000000000000000000815250815f90816200008e91906200045c565b508060019081620000a091906200045c565b5050505f73ffffffffffffffffffffffffffffffffffffffff168173ffffffffffffffffffffffffffffffffffffffff160362000116575f6040517f1e4fbdf70000000000000000000000000000000000000000000000000000000081526004016200010d919062000583565b60405180910390fd5b62000127816200013560201b60201c565b505f6007819055506200059e565b5f60065f9054906101000a900473ffffffffffffffffffffffffffffffffffffffff1690508160065f6101000a81548173ffffffffffffffffffffffffffffffffffffffff021916908373ffffffffffffffffffffffffffffffffffffffff1602179055508173ffffffffffffffffffffffffffffffffffffffff168173ffffffffffffffffffffffffffffffffffffffff167f8be0079c531659141344cd1fd0a4f28419497f9722a3daafe3b4186f6b6457e060405160405180910390a35050565b5f81519050919050565b7f4e487b71000000000000000000000000000000000000000000000000000000005f52604160045260245ffd5b7f4e487b71000000000000000000000000000000000000000000000000000000005f52602260045260245ffd5b5f60028204905060018216806200027457607f821691505b6020821081036200028a57620002896200022f565b5b50919050565b5f819050815f5260205f209050919050565b5f6020601f8301049050919050565b5f82821b905092915050565b5f60088302620002ee7fffffffffffffffffffffffffffffffffffffffffffffffffffffffffffffffff82620002b1565b620002fa8683620002b1565b95508019841693508086168417925050509392505050565b5f819050919050565b5f819050919050565b5f620003446200033e620003388462000312565b6200031b565b62000312565b9050919050565b5f819050919050565b6200035f8362000324565b620003776200036e826200034b565b848454620002bd565b825550505050565b5f90565b6200038d6200037f565b6200039a81848462000354565b505050565b5b81811015620003c157620003b55f8262000383565b600181019050620003a0565b5050565b601f8211156200041057620003da8162000290565b620003e584620002a2565b81016020851015620003f5578190505b6200040d6200040485620002a2565b8301826200039f565b50505b505050565b5f82821c905092915050565b5f620004325f198460080262000415565b1980831691505092915050565b5f6200044c838362000421565b9150826002028217905092915050565b6200046782620001f8565b67ffffffffffffffff81111562000483576200048262000202565b5b6200048f82546200025c565b6200049c828285620003c5565b5f60209050601f831160018114620004d2575f8415620004bd578287015190505b620004c985826200043f565b86555062000538565b601f198416620004e28662000290565b5f5b828110156200050b57848901518255600182019150602085019450602081019050620004e4565b868310156200052b578489015162000527601f89168262000421565b8355505b6001600288020188555050505b505050505050565b5f73ffffffffffffffffffffffffffffffffffffffff82169050919050565b5f6200056b8262000540565b9050919050565b6200057d816200055f565b82525050565b5f602082019050620005985f83018462000572565b92915050565b615e8280620005ac5f395ff3fe608060405260043610610219575f3560e01c80638da5cb5b11610122578063c87b56dd116100aa578063e806bc701161006e578063e806bc701461087a578063e985e9c5146108a4578063ed824bed146108e0578063f07b85071461091c578063f2fde38b1461095857610219565b8063c87b56dd1461074e578063cef75a991461078a578063cf8c3258146107c6578063dece51c414610802578063e31f2a201461083e57610219565b8063a22cb465116100f1578063a22cb46514610657578063a6788b961461067f578063b27e924f146106bf578063b88d4fde146106e7578063bdb4e48d1461070f57610219565b80638da5cb5b1461058b5780638fe75838146105b557806392597120146105f157806395d89b411461062d57610219565b80632e7bf007116101a55780636352211e116101745780636352211e1461049957806370a08231146104d5578063715018a61461051157806377162ef91461052757806377e1d95d1461054f57610219565b80632e7bf007146103cf57806342842e0e146103f957806346f56d97146104215780634c6cf6161461045d57610219565b806309d0ffa8116101ec57806309d0ffa8146102e7578063185385431461030f5780631b9b41f31461032b57806320908aff1461036757806323b872dd146103a757610219565b806301ffc9a71461021d57806306fdde0314610259578063081812fc14610283578063095ea7b3146102bf575b5f80fd5b348015610228575f80fd5b50610243600480360381019061023e9190614981565b610980565b60405161025091906149c6565b60405180910390f35b348015610264575f80fd5b5061026d610a61565b60405161027a9190614a69565b60405180910390f35b34801561028e575f80fd5b506102a960048036038101906102a49190614abc565b610af0565b6040516102b69190614b26565b60405180910390f35b3480156102ca575f80fd5b506102e560048036038101906102e09190614b69565b610b0b565b005b3480156102f2575f80fd5b5061030d60048036038101906103089190614ba7565b610b21565b005b61032960048036038101906103249190614be5565b610deb565b005b348015610336575f80fd5b50610351600480360381019061034c9190614abc565b611991565b60405161035e9190614cec565b60405180910390f35b348015610372575f80fd5b5061038d60048036038101906103889190614be5565b611a2d565b60405161039e959493929190614d3b565b60405180910390f35b3480156103b2575f80fd5b506103cd60048036038101906103c89190614d8c565b611aa0565b005b3480156103da575f80fd5b506103e3611b9f565b6040516103f09190614ddc565b60405180910390f35b348015610404575f80fd5b5061041f600480360381019061041a9190614d8c565b611ba8565b005b34801561042c575f80fd5b5061044760048036038101906104429190614df5565b611bc7565b6040516104549190614ed7565b60405180910390f35b348015610468575f80fd5b50610483600480360381019061047e9190614ba7565b611cef565b6040516104909190614b26565b60405180910390f35b3480156104a4575f80fd5b506104bf60048036038101906104ba9190614abc565b611d37565b6040516104cc9190614b26565b60405180910390f35b3480156104e0575f80fd5b506104fb60048036038101906104f69190614df5565b611d48565b6040516105089190614ddc565b60405180910390f35b34801561051c575f80fd5b50610525611dfe565b005b348015610532575f80fd5b5061054d60048036038101906105489190614f56565b611e11565b005b34801561055a575f80fd5b5061057560048036038101906105709190614abc565b6120be565b6040516105829190614ddc565b60405180910390f35b348015610596575f80fd5b5061059f6120db565b6040516105ac9190614b26565b60405180910390f35b3480156105c0575f80fd5b506105db60048036038101906105d69190614abc565b612103565b6040516105e89190614ddc565b60405180910390f35b3480156105fc575f80fd5b5061061760048036038101906106129190614fba565b6121b7565b604051610624919061507c565b60405180910390f35b348015610638575f80fd5b506106416122aa565b60405161064e9190614a69565b60405180910390f35b348015610662575f80fd5b5061067d600480360381019061067891906150bf565b61233a565b005b34801561068a575f80fd5b506106a560048036038101906106a09190614fba565b612350565b6040516106b69594939291906150fd565b60405180910390f35b3480156106ca575f80fd5b506106e560048036038101906106e0919061514e565b6123b8565b005b3480156106f2575f80fd5b5061070d600480360381019061070891906152ca565b612887565b005b34801561071a575f80fd5b5061073560048036038101906107309190614abc565b6128a4565b6040516107459493929190615359565b60405180910390f35b348015610759575f80fd5b50610774600480360381019061076f9190614abc565b6128e7565b6040516107819190614a69565b60405180910390f35b348015610795575f80fd5b506107b060048036038101906107ab9190614fba565b61294d565b6040516107bd91906154aa565b60405180910390f35b3480156107d1575f80fd5b506107ec60048036038101906107e79190614fba565b612b9d565b6040516107f99190614ddc565b60405180910390f35b34801561080d575f80fd5b5061082860048036038101906108239190614abc565b612bf6565b604051610835919061552c565b60405180910390f35b348015610849575f80fd5b50610864600480360381019061085f9190614be5565b612c67565b6040516108719190614ddc565b60405180910390f35b348015610885575f80fd5b5061088e612c9d565b60405161089b9190615640565b60405180910390f35b3480156108af575f80fd5b506108ca60048036038101906108c59190615660565b612da4565b6040516108d791906149c6565b60405180910390f35b3480156108eb575f80fd5b5061090660048036038101906109019190614abc565b612e32565b60405161091391906157ac565b60405180910390f35b348015610927575f80fd5b50610942600480360381019061093d9190614b69565b61301b565b60405161094f9190614ddc565b60405180910390f35b348015610963575f80fd5b5061097e60048036038101906109799190614df5565b613046565b005b5f7f80ac58cd000000000000000000000000000000000000000000000000000000007bffffffffffffffffffffffffffffffffffffffffffffffffffffffff1916827bffffffffffffffffffffffffffffffffffffffffffffffffffffffff19161480610a4a57507f5b5e139f000000000000000000000000000000000000000000000000000000007bffffffffffffffffffffffffffffffffffffffffffffffffffffffff1916827bffffffffffffffffffffffffffffffffffffffffffffffffffffffff1916145b80610a5a5750610a59826130ca565b5b9050919050565b60605f8054610a6f906157f9565b80601f0160208091040260200160405190810160405280929190818152602001828054610a9b906157f9565b8015610ae65780601f10610abd57610100808354040283529160200191610ae6565b820191905f5260205f20905b815481529060010190602001808311610ac957829003601f168201915b5050505050905090565b5f610afa82613133565b50610b04826131b9565b9050919050565b610b1d8282610b186131f2565b6131f9565b5050565b6007548210610b65576040517f08c379a0000000000000000000000000000000000000000000000000000000008152600401610b5c90615873565b60405180910390fd5b3373ffffffffffffffffffffffffffffffffffffffff16600b5f8481526020019081526020015f205f3373ffffffffffffffffffffffffffffffffffffffff1673ffffffffffffffffffffffffffffffffffffffff1681526020019081526020015f205f8381526020019081526020015f205f015f9054906101000a900473ffffffffffffffffffffffffffffffffffffffff1673ffffffffffffffffffffffffffffffffffffffff1614610c18575f80fd5b5f600b5f8481526020019081526020015f205f3373ffffffffffffffffffffffffffffffffffffffff1673ffffffffffffffffffffffffffffffffffffffff1681526020019081526020015f205f8381526020019081526020015f206004015f6101000a81548160ff0219169083151502179055505f600b5f8481526020019081526020015f205f3373ffffffffffffffffffffffffffffffffffffffff1673ffffffffffffffffffffffffffffffffffffffff1681526020019081526020015f205f8381526020019081526020015f206003015490508060095f8581526020019081526020015f205f3373ffffffffffffffffffffffffffffffffffffffff1673ffffffffffffffffffffffffffffffffffffffff1681526020019081526020015f206002015f828254610d4d91906158be565b92505081905550610ddb83600b5f8681526020019081526020015f205f3373ffffffffffffffffffffffffffffffffffffffff1673ffffffffffffffffffffffffffffffffffffffff1681526020019081526020015f205f8581526020019081526020015f205f015f9054906101000a900473ffffffffffffffffffffffffffffffffffffffff168461320b565b610de63033856134f9565b505050565b6007548310610e2f576040517f08c379a0000000000000000000000000000000000000000000000000000000008152600401610e2690615873565b60405180910390fd5b60011515600b5f8581526020019081526020015f205f8473ffffffffffffffffffffffffffffffffffffffff1673ffffffffffffffffffffffffffffffffffffffff1681526020019081526020015f205f8381526020019081526020015f206004015f9054906101000a900460ff16151514610ee0576040517f08c379a0000000000000000000000000000000000000000000000000000000008152600401610ed79061593b565b60405180910390fd5b34600b5f8581526020019081526020015f205f8473ffffffffffffffffffffffffffffffffffffffff1673ffffffffffffffffffffffffffffffffffffffff1681526020019081526020015f205f8381526020019081526020015f206002015414610f80576040517f08c379a0000000000000000000000000000000000000000000000000000000008152600401610f77906159c9565b60405180910390fd5b5f600b5f8581526020019081526020015f205f8473ffffffffffffffffffffffffffffffffffffffff1673ffffffffffffffffffffffffffffffffffffffff1681526020019081526020015f205f8381526020019081526020015f205f015f9054906101000a900473ffffffffffffffffffffffffffffffffffffffff1690505f600b5f8681526020019081526020015f205f8573ffffffffffffffffffffffffffffffffffffffff1673ffffffffffffffffffffffffffffffffffffffff1681526020019081526020015f205f8481526020019081526020015f206004015f6101000a81548160ff0219169083151502179055505f600b5f8681526020019081526020015f205f8573ffffffffffffffffffffffffffffffffffffffff1673ffffffffffffffffffffffffffffffffffffffff1681526020019081526020015f205f8481526020019081526020015f206003015490508060095f8781526020019081526020015f205f8473ffffffffffffffffffffffffffffffffffffffff1673ffffffffffffffffffffffffffffffffffffffff1681526020019081526020015f206001015f82825461113591906159e7565b925050819055505f60095f8781526020019081526020015f205f8473ffffffffffffffffffffffffffffffffffffffff1673ffffffffffffffffffffffffffffffffffffffff1681526020019081526020015f2060010154036111f8575f60095f8781526020019081526020015f205f8473ffffffffffffffffffffffffffffffffffffffff1673ffffffffffffffffffffffffffffffffffffffff1681526020019081526020015f205f015f6101000a81548160ff0219169083151502179055505b8060095f8781526020019081526020015f205f3373ffffffffffffffffffffffffffffffffffffffff1673ffffffffffffffffffffffffffffffffffffffff1681526020019081526020015f206001015f82825461125691906158be565b925050819055508060095f8781526020019081526020015f205f3373ffffffffffffffffffffffffffffffffffffffff1673ffffffffffffffffffffffffffffffffffffffff1681526020019081526020015f206002015f8282546112bb91906158be565b925050819055506112cd85838561320b565b5f151560095f8781526020019081526020015f205f3373ffffffffffffffffffffffffffffffffffffffff1673ffffffffffffffffffffffffffffffffffffffff1681526020019081526020015f205f015f9054906101000a900460ff161515036117a3576001151560095f8781526020019081526020015f205f8473ffffffffffffffffffffffffffffffffffffffff1673ffffffffffffffffffffffffffffffffffffffff1681526020019081526020015f205f015f9054906101000a900460ff1615150361156057600160095f8781526020019081526020015f205f3373ffffffffffffffffffffffffffffffffffffffff1673ffffffffffffffffffffffffffffffffffffffff1681526020019081526020015f205f015f6101000a81548160ff0219169083151502179055503360095f8781526020019081526020015f205f3373ffffffffffffffffffffffffffffffffffffffff1673ffffffffffffffffffffffffffffffffffffffff1681526020019081526020015f205f0160016101000a81548173ffffffffffffffffffffffffffffffffffffffff021916908373ffffffffffffffffffffffffffffffffffffffff160217905550600a5f8681526020019081526020015f2033908060018154018082558091505060019003905f5260205f20015f9091909190916101000a81548173ffffffffffffffffffffffffffffffffffffffff021916908373ffffffffffffffffffffffffffffffffffffffff160217905550600d5f3373ffffffffffffffffffffffffffffffffffffffff1673ffffffffffffffffffffffffffffffffffffffff1681526020019081526020015f2085908060018154018082558091505060019003905f5260205f20015f909190919091505561179e565b5f151560095f8781526020019081526020015f205f8473ffffffffffffffffffffffffffffffffffffffff1673ffffffffffffffffffffffffffffffffffffffff1681526020019081526020015f205f015f9054906101000a900460ff1615150361179d576115cf8583613661565b6115d985836138cd565b600160095f8781526020019081526020015f205f3373ffffffffffffffffffffffffffffffffffffffff1673ffffffffffffffffffffffffffffffffffffffff1681526020019081526020015f205f015f6101000a81548160ff0219169083151502179055503360095f8781526020019081526020015f205f3373ffffffffffffffffffffffffffffffffffffffff1673ffffffffffffffffffffffffffffffffffffffff1681526020019081526020015f205f0160016101000a81548173ffffffffffffffffffffffffffffffffffffffff021916908373ffffffffffffffffffffffffffffffffffffffff160217905550600a5f8681526020019081526020015f2033908060018154018082558091505060019003905f5260205f20015f9091909190916101000a81548173ffffffffffffffffffffffffffffffffffffffff021916908373ffffffffffffffffffffffffffffffffffffffff160217905550600d5f3373ffffffffffffffffffffffffffffffffffffffff1673ffffffffffffffffffffffffffffffffffffffff1681526020019081526020015f2085908060018154018082558091505060019003905f5260205f20015f90919091909150555b5b611885565b6001151560095f8781526020019081526020015f205f3373ffffffffffffffffffffffffffffffffffffffff1673ffffffffffffffffffffffffffffffffffffffff1681526020019081526020015f205f015f9054906101000a900460ff16151503611884575f151560095f8781526020019081526020015f205f8473ffffffffffffffffffffffffffffffffffffffff1673ffffffffffffffffffffffffffffffffffffffff1681526020019081526020015f205f015f9054906101000a900460ff16151503611883576118788583613661565b61188285836138cd565b5b5b5b8173ffffffffffffffffffffffffffffffffffffffff166108fc600b5f8881526020019081526020015f205f8773ffffffffffffffffffffffffffffffffffffffff1673ffffffffffffffffffffffffffffffffffffffff1681526020019081526020015f205f8681526020019081526020015f206002015490811502906040515f60405180830381858888f19350505050158015611926573d5f803e3d5ffd5b50606460095f8781526020019081526020015f205f3373ffffffffffffffffffffffffffffffffffffffff1673ffffffffffffffffffffffffffffffffffffffff1681526020019081526020015f20600101540361198a576119893033876134f9565b5b5050505050565b6060600a5f8381526020019081526020015f20805480602002602001604051908101604052809291908181526020018280548015611a2157602002820191905f5260205f20905b815f9054906101000a900473ffffffffffffffffffffffffffffffffffffffff1673ffffffffffffffffffffffffffffffffffffffff16815260200190600101908083116119d8575b50505050509050919050565b600b602052825f5260405f20602052815f5260405f20602052805f5260405f205f925092505050805f015f9054906101000a900473ffffffffffffffffffffffffffffffffffffffff1690806001015490806002015490806003015490806004015f9054906101000a900460ff16905085565b5f73ffffffffffffffffffffffffffffffffffffffff168273ffffffffffffffffffffffffffffffffffffffff1603611b10575f6040517f64a0ae92000000000000000000000000000000000000000000000000000000008152600401611b079190614b26565b60405180910390fd5b5f611b238383611b1e6131f2565b613b60565b90508373ffffffffffffffffffffffffffffffffffffffff168173ffffffffffffffffffffffffffffffffffffffff1614611b99578382826040517f64283d7b000000000000000000000000000000000000000000000000000000008152600401611b9093929190615a1a565b60405180910390fd5b50505050565b5f600754905090565b611bc283838360405180602001604052805f815250612887565b505050565b60605f600d5f8473ffffffffffffffffffffffffffffffffffffffff1673ffffffffffffffffffffffffffffffffffffffff1681526020019081526020015f208054905090505f8167ffffffffffffffff811115611c2857611c276151a6565b5b604051908082528060200260200182016040528015611c565781602001602082028036833780820191505090505b509050600d5f8573ffffffffffffffffffffffffffffffffffffffff1673ffffffffffffffffffffffffffffffffffffffff1681526020019081526020015f20805480602002602001604051908101604052809291908181526020018280548015611cde57602002820191905f5260205f20905b815481526020019060010190808311611cca575b505050505090508092505050919050565b600a602052815f5260405f208181548110611d08575f80fd5b905f5260205f20015f915091509054906101000a900473ffffffffffffffffffffffffffffffffffffffff1681565b5f611d4182613133565b9050919050565b5f8073ffffffffffffffffffffffffffffffffffffffff168273ffffffffffffffffffffffffffffffffffffffff1603611db9575f6040517f89c62b64000000000000000000000000000000000000000000000000000000008152600401611db09190614b26565b60405180910390fd5b60035f8373ffffffffffffffffffffffffffffffffffffffff1673ffffffffffffffffffffffffffffffffffffffff1681526020019081526020015f20549050919050565b611e06613d6b565b611e0f5f613df2565b565b611e19613d6b565b611e2584600754613eb5565b60405180608001604052806007548152602001848152602001835f0b8152602001825f0b81525060085f60075481526020019081526020015f205f820151815f0155602082015181600101556040820151816002015f6101000a81548160ff02191690835f0b60ff16021790555060608201518160020160016101000a81548160ff02191690835f0b60ff1602179055509050506040518060a001604052806001151581526020018573ffffffffffffffffffffffffffffffffffffffff16815260200160648152602001606481526020015f81525060095f60075481526020019081526020015f205f8673ffffffffffffffffffffffffffffffffffffffff1673ffffffffffffffffffffffffffffffffffffffff1681526020019081526020015f205f820151815f015f6101000a81548160ff0219169083151502179055506020820151815f0160016101000a81548173ffffffffffffffffffffffffffffffffffffffff021916908373ffffffffffffffffffffffffffffffffffffffff160217905550604082015181600101556060820151816002015560808201518160030155905050600a5f60075481526020019081526020015f2084908060018154018082558091505060019003905f5260205f20015f9091909190916101000a81548173ffffffffffffffffffffffffffffffffffffffff021916908373ffffffffffffffffffffffffffffffffffffffff160217905550600d5f8573ffffffffffffffffffffffffffffffffffffffff1673ffffffffffffffffffffffffffffffffffffffff1681526020019081526020015f20600754908060018154018082558091505060019003905f5260205f20015f909190919091505560075f8154809291906120b390615a4f565b919050555050505050565b5f600a5f8381526020019081526020015f20805490509050919050565b5f60065f9054906101000a900473ffffffffffffffffffffffffffffffffffffffff16905090565b5f805f90505f5b612113846120be565b8110156121ad575f5b61217085600a5f8881526020019081526020015f20848154811061214357612142615a96565b5b905f5260205f20015f9054906101000a900473ffffffffffffffffffffffffffffffffffffffff16612b9d565b8110156121995760018361218491906158be565b9250808061219190615a4f565b91505061211c565b5080806121a590615a4f565b91505061210a565b5080915050919050565b6121bf61486f565b60095f8481526020019081526020015f205f8373ffffffffffffffffffffffffffffffffffffffff1673ffffffffffffffffffffffffffffffffffffffff1681526020019081526020015f206040518060a00160405290815f82015f9054906101000a900460ff161515151581526020015f820160019054906101000a900473ffffffffffffffffffffffffffffffffffffffff1673ffffffffffffffffffffffffffffffffffffffff1673ffffffffffffffffffffffffffffffffffffffff1681526020016001820154815260200160028201548152602001600382015481525050905092915050565b6060600180546122b9906157f9565b80601f01602080910402602001604051908101604052809291908181526020018280546122e5906157f9565b80156123305780601f1061230757610100808354040283529160200191612330565b820191905f5260205f20905b81548152906001019060200180831161231357829003601f168201915b5050505050905090565b61234c6123456131f2565b8383613fa8565b5050565b6009602052815f5260405f20602052805f5260405f205f9150915050805f015f9054906101000a900460ff1690805f0160019054906101000a900473ffffffffffffffffffffffffffffffffffffffff16908060010154908060020154908060030154905085565b60075483106123fc576040517f08c379a00000000000000000000000000000000000000000000000000000000081526004016123f390615873565b60405180910390fd5b6001151560095f8581526020019081526020015f205f3373ffffffffffffffffffffffffffffffffffffffff1673ffffffffffffffffffffffffffffffffffffffff1681526020019081526020015f205f015f9054906101000a900460ff1615151461249d576040517f08c379a000000000000000000000000000000000000000000000000000000000815260040161249490615b33565b60405180910390fd5b5f82116124df576040517f08c379a00000000000000000000000000000000000000000000000000000000081526004016124d690615bc1565b60405180910390fd5b60095f8481526020019081526020015f205f3373ffffffffffffffffffffffffffffffffffffffff1673ffffffffffffffffffffffffffffffffffffffff1681526020019081526020015f2060020154811115612571576040517f08c379a000000000000000000000000000000000000000000000000000000000815260040161256890615c75565b60405180910390fd5b606460095f8581526020019081526020015f205f3373ffffffffffffffffffffffffffffffffffffffff1673ffffffffffffffffffffffffffffffffffffffff1681526020019081526020015f2060020154036125d4576125d33330856134f9565b5b5f60095f8581526020019081526020015f205f3373ffffffffffffffffffffffffffffffffffffffff1673ffffffffffffffffffffffffffffffffffffffff1681526020019081526020015f20600301549050600c5f8581526020019081526020015f205f3373ffffffffffffffffffffffffffffffffffffffff1673ffffffffffffffffffffffffffffffffffffffff1681526020019081526020015f2081908060018154018082558091505060019003905f5260205f20015f9091909190915055600160095f8681526020019081526020015f205f3373ffffffffffffffffffffffffffffffffffffffff1673ffffffffffffffffffffffffffffffffffffffff1681526020019081526020015f206003015f8282546126f691906158be565b925050819055506040518060a001604052803373ffffffffffffffffffffffffffffffffffffffff16815260200182815260200184815260200183815260200160011515815250600b5f8681526020019081526020015f205f3373ffffffffffffffffffffffffffffffffffffffff1673ffffffffffffffffffffffffffffffffffffffff1681526020019081526020015f205f8381526020019081526020015f205f820151815f015f6101000a81548173ffffffffffffffffffffffffffffffffffffffff021916908373ffffffffffffffffffffffffffffffffffffffff1602179055506020820151816001015560408201518160020155606082015181600301556080820151816004015f6101000a81548160ff0219169083151502179055509050508160095f8681526020019081526020015f205f3373ffffffffffffffffffffffffffffffffffffffff1673ffffffffffffffffffffffffffffffffffffffff1681526020019081526020015f206002015f82825461287a91906159e7565b9250508190555050505050565b612892848484611aa0565b61289e84848484614111565b50505050565b6008602052805f5260405f205f91509050805f015490806001015490806002015f9054906101000a90045f0b908060020160019054906101000a90045f0b905084565b60606128f282613133565b505f6128fc6142c3565b90505f81511161291a5760405180602001604052805f815250612945565b80612924846142d9565b604051602001612935929190615ccd565b6040516020818303038152906040525b915050919050565b60605f600c5f8581526020019081526020015f205f8473ffffffffffffffffffffffffffffffffffffffff1673ffffffffffffffffffffffffffffffffffffffff1681526020019081526020015f208054905090505f8167ffffffffffffffff8111156129bd576129bc6151a6565b5b6040519080825280602002602001820160405280156129f657816020015b6129e36148b1565b8152602001906001900390816129db5790505b5090505f5b82811015612b91575f600c5f8881526020019081526020015f205f8773ffffffffffffffffffffffffffffffffffffffff1673ffffffffffffffffffffffffffffffffffffffff1681526020019081526020015f208281548110612a6257612a61615a96565b5b905f5260205f2001549050600b5f8881526020019081526020015f205f8773ffffffffffffffffffffffffffffffffffffffff1673ffffffffffffffffffffffffffffffffffffffff1681526020019081526020015f205f8281526020019081526020015f206040518060a00160405290815f82015f9054906101000a900473ffffffffffffffffffffffffffffffffffffffff1673ffffffffffffffffffffffffffffffffffffffff1673ffffffffffffffffffffffffffffffffffffffff168152602001600182015481526020016002820154815260200160038201548152602001600482015f9054906101000a900460ff161515151581525050838381518110612b7257612b71615a96565b5b6020026020010181905250508080612b8990615a4f565b9150506129fb565b50809250505092915050565b5f600c5f8481526020019081526020015f205f8373ffffffffffffffffffffffffffffffffffffffff1673ffffffffffffffffffffffffffffffffffffffff1681526020019081526020015f2080549050905092915050565b612bfe6148f3565b60085f8381526020019081526020015f206040518060800160405290815f820154815260200160018201548152602001600282015f9054906101000a90045f0b5f0b5f0b81526020016002820160019054906101000a90045f0b5f0b5f0b815250509050919050565b600c602052825f5260405f20602052815f5260405f208181548110612c8a575f80fd5b905f5260205f20015f9250925050505481565b60605f60075467ffffffffffffffff811115612cbc57612cbb6151a6565b5b604051908082528060200260200182016040528015612cf557816020015b612ce26148f3565b815260200190600190039081612cda5790505b5090505f5b600754811015612d9c575f60085f8381526020019081526020015f209050806040518060800160405290815f820154815260200160018201548152602001600282015f9054906101000a90045f0b5f0b5f0b81526020016002820160019054906101000a90045f0b5f0b5f0b81525050838381518110612d7d57612d7c615a96565b5b6020026020010181905250508080612d9490615a4f565b915050612cfa565b508091505090565b5f60055f8473ffffffffffffffffffffffffffffffffffffffff1673ffffffffffffffffffffffffffffffffffffffff1681526020019081526020015f205f8373ffffffffffffffffffffffffffffffffffffffff1673ffffffffffffffffffffffffffffffffffffffff1681526020019081526020015f205f9054906101000a900460ff16905092915050565b60605f600a5f8481526020019081526020015f208054905090505f8167ffffffffffffffff811115612e6757612e666151a6565b5b604051908082528060200260200182016040528015612ea057816020015b612e8d61486f565b815260200190600190039081612e855790505b5090505f5b82811015613010575f600a5f8781526020019081526020015f208281548110612ed157612ed0615a96565b5b905f5260205f20015f9054906101000a900473ffffffffffffffffffffffffffffffffffffffff16905060095f8781526020019081526020015f205f8273ffffffffffffffffffffffffffffffffffffffff1673ffffffffffffffffffffffffffffffffffffffff1681526020019081526020015f206040518060a00160405290815f82015f9054906101000a900460ff161515151581526020015f820160019054906101000a900473ffffffffffffffffffffffffffffffffffffffff1673ffffffffffffffffffffffffffffffffffffffff1673ffffffffffffffffffffffffffffffffffffffff1681526020016001820154815260200160028201548152602001600382015481525050838381518110612ff157612ff0615a96565b5b602002602001018190525050808061300890615a4f565b915050612ea5565b508092505050919050565b600d602052815f5260405f208181548110613034575f80fd5b905f5260205f20015f91509150505481565b61304e613d6b565b5f73ffffffffffffffffffffffffffffffffffffffff168173ffffffffffffffffffffffffffffffffffffffff16036130be575f6040517f1e4fbdf70000000000000000000000000000000000000000000000000000000081526004016130b59190614b26565b60405180910390fd5b6130c781613df2565b50565b5f7f01ffc9a7000000000000000000000000000000000000000000000000000000007bffffffffffffffffffffffffffffffffffffffffffffffffffffffff1916827bffffffffffffffffffffffffffffffffffffffffffffffffffffffff1916149050919050565b5f8061313e836143a3565b90505f73ffffffffffffffffffffffffffffffffffffffff168173ffffffffffffffffffffffffffffffffffffffff16036131b057826040517f7e2732890000000000000000000000000000000000000000000000000000000081526004016131a79190614ddc565b60405180910390fd5b80915050919050565b5f60045f8381526020019081526020015f205f9054906101000a900473ffffffffffffffffffffffffffffffffffffffff169050919050565b5f33905090565b61320683838360016143dc565b505050565b5f600c5f8581526020019081526020015f205f8473ffffffffffffffffffffffffffffffffffffffff1673ffffffffffffffffffffffffffffffffffffffff1681526020019081526020015f208054905090505f805f90505b828110156132f05783600c5f8881526020019081526020015f205f8773ffffffffffffffffffffffffffffffffffffffff1673ffffffffffffffffffffffffffffffffffffffff1681526020019081526020015f2082815481106132cb576132ca615a96565b5b905f5260205f200154036132dd578091505b80806132e890615a4f565b915050613264565b50806001836132ff91906159e7565b0361337857600c5f8681526020019081526020015f205f8573ffffffffffffffffffffffffffffffffffffffff1673ffffffffffffffffffffffffffffffffffffffff1681526020019081526020015f208054806133605761335f615cf0565b5b600190038181905f5260205f20015f905590556134f2565b5f8190505b60018361338a91906159e7565b81101561348157600c5f8781526020019081526020015f205f8673ffffffffffffffffffffffffffffffffffffffff1673ffffffffffffffffffffffffffffffffffffffff1681526020019081526020015f206001826133ea91906158be565b815481106133fb576133fa615a96565b5b905f5260205f200154600c5f8881526020019081526020015f205f8773ffffffffffffffffffffffffffffffffffffffff1673ffffffffffffffffffffffffffffffffffffffff1681526020019081526020015f20828154811061346257613461615a96565b5b905f5260205f200181905550808061347990615a4f565b91505061337d565b50600c5f8681526020019081526020015f205f8573ffffffffffffffffffffffffffffffffffffffff1673ffffffffffffffffffffffffffffffffffffffff1681526020019081526020015f208054806134de576134dd615cf0565b5b600190038181905f5260205f20015f905590555b5050505050565b5f73ffffffffffffffffffffffffffffffffffffffff168273ffffffffffffffffffffffffffffffffffffffff1603613569575f6040517f64a0ae920000000000000000000000000000000000000000000000000000000081526004016135609190614b26565b60405180910390fd5b5f61357583835f613b60565b90505f73ffffffffffffffffffffffffffffffffffffffff168173ffffffffffffffffffffffffffffffffffffffff16036135e757816040517f7e2732890000000000000000000000000000000000000000000000000000000081526004016135de9190614ddc565b60405180910390fd5b8373ffffffffffffffffffffffffffffffffffffffff168173ffffffffffffffffffffffffffffffffffffffff161461365b578382826040517f64283d7b00000000000000000000000000000000000000000000000000000000815260040161365293929190615a1a565b60405180910390fd5b50505050565b5f600a5f8481526020019081526020015f208054905090505f805f90505b8281101561371b578373ffffffffffffffffffffffffffffffffffffffff16600a5f8781526020019081526020015f2082815481106136c1576136c0615a96565b5b905f5260205f20015f9054906101000a900473ffffffffffffffffffffffffffffffffffffffff1673ffffffffffffffffffffffffffffffffffffffff1603613708578091505b808061371390615a4f565b91505061367f565b508060018361372a91906159e7565b0361378757600a5f8581526020019081526020015f208054806137505761374f615cf0565b5b600190038181905f5260205f20015f6101000a81549073ffffffffffffffffffffffffffffffffffffffff021916905590556138c7565b5f8190505b60018361379991906159e7565b81101561387257600a5f8681526020019081526020015f206001826137be91906158be565b815481106137cf576137ce615a96565b5b905f5260205f20015f9054906101000a900473ffffffffffffffffffffffffffffffffffffffff16600a5f8781526020019081526020015f20828154811061381a57613819615a96565b5b905f5260205f20015f6101000a81548173ffffffffffffffffffffffffffffffffffffffff021916908373ffffffffffffffffffffffffffffffffffffffff160217905550808061386a90615a4f565b91505061378c565b50600a5f8581526020019081526020015f2080548061389457613893615cf0565b5b600190038181905f5260205f20015f6101000a81549073ffffffffffffffffffffffffffffffffffffffff021916905590555b50505050565b5f600d5f8373ffffffffffffffffffffffffffffffffffffffff1673ffffffffffffffffffffffffffffffffffffffff1681526020019081526020015f208054905090505f805f90505b82811015613b595784600d5f8673ffffffffffffffffffffffffffffffffffffffff1673ffffffffffffffffffffffffffffffffffffffff1681526020019081526020015f20828154811061396f5761396e615a96565b5b905f5260205f20015403613981578091505b8160018461398f91906159e7565b036139f957600d5f8573ffffffffffffffffffffffffffffffffffffffff1673ffffffffffffffffffffffffffffffffffffffff1681526020019081526020015f208054806139e1576139e0615cf0565b5b600190038181905f5260205f20015f90559055613b46565b5f8290505b600184613a0b91906159e7565b811015613ae457600d5f8673ffffffffffffffffffffffffffffffffffffffff1673ffffffffffffffffffffffffffffffffffffffff1681526020019081526020015f20600182613a5c91906158be565b81548110613a6d57613a6c615a96565b5b905f5260205f200154600d5f8773ffffffffffffffffffffffffffffffffffffffff1673ffffffffffffffffffffffffffffffffffffffff1681526020019081526020015f208281548110613ac557613ac4615a96565b5b905f5260205f2001819055508080613adc90615a4f565b9150506139fe565b50600d5f8573ffffffffffffffffffffffffffffffffffffffff1673ffffffffffffffffffffffffffffffffffffffff1681526020019081526020015f20805480613b3257613b31615cf0565b5b600190038181905f5260205f20015f905590555b8080613b5190615a4f565b915050613917565b5050505050565b5f80613b6b846143a3565b90505f73ffffffffffffffffffffffffffffffffffffffff168373ffffffffffffffffffffffffffffffffffffffff1614613bac57613bab81848661459b565b5b5f73ffffffffffffffffffffffffffffffffffffffff168173ffffffffffffffffffffffffffffffffffffffff1614613c3757613beb5f855f806143dc565b600160035f8373ffffffffffffffffffffffffffffffffffffffff1673ffffffffffffffffffffffffffffffffffffffff1681526020019081526020015f205f82825403925050819055505b5f73ffffffffffffffffffffffffffffffffffffffff168573ffffffffffffffffffffffffffffffffffffffff1614613cb657600160035f8773ffffffffffffffffffffffffffffffffffffffff1673ffffffffffffffffffffffffffffffffffffffff1681526020019081526020015f205f82825401925050819055505b8460025f8681526020019081526020015f205f6101000a81548173ffffffffffffffffffffffffffffffffffffffff021916908373ffffffffffffffffffffffffffffffffffffffff160217905550838573ffffffffffffffffffffffffffffffffffffffff168273ffffffffffffffffffffffffffffffffffffffff167fddf252ad1be2c89b69c2b068fc378daa952ba7f163c4a11628f55a4df523b3ef60405160405180910390a4809150509392505050565b613d736131f2565b73ffffffffffffffffffffffffffffffffffffffff16613d916120db565b73ffffffffffffffffffffffffffffffffffffffff1614613df057613db46131f2565b6040517f118cdaa7000000000000000000000000000000000000000000000000000000008152600401613de79190614b26565b60405180910390fd5b565b5f60065f9054906101000a900473ffffffffffffffffffffffffffffffffffffffff1690508160065f6101000a81548173ffffffffffffffffffffffffffffffffffffffff021916908373ffffffffffffffffffffffffffffffffffffffff1602179055508173ffffffffffffffffffffffffffffffffffffffff168173ffffffffffffffffffffffffffffffffffffffff167f8be0079c531659141344cd1fd0a4f28419497f9722a3daafe3b4186f6b6457e060405160405180910390a35050565b5f73ffffffffffffffffffffffffffffffffffffffff168273ffffffffffffffffffffffffffffffffffffffff1603613f25575f6040517f64a0ae92000000000000000000000000000000000000000000000000000000008152600401613f1c9190614b26565b60405180910390fd5b5f613f3183835f613b60565b90505f73ffffffffffffffffffffffffffffffffffffffff168173ffffffffffffffffffffffffffffffffffffffff1614613fa3575f6040517f73c6ac6e000000000000000000000000000000000000000000000000000000008152600401613f9a9190614b26565b60405180910390fd5b505050565b5f73ffffffffffffffffffffffffffffffffffffffff168273ffffffffffffffffffffffffffffffffffffffff160361401857816040517f5b08ba1800000000000000000000000000000000000000000000000000000000815260040161400f9190614b26565b60405180910390fd5b8060055f8573ffffffffffffffffffffffffffffffffffffffff1673ffffffffffffffffffffffffffffffffffffffff1681526020019081526020015f205f8473ffffffffffffffffffffffffffffffffffffffff1673ffffffffffffffffffffffffffffffffffffffff1681526020019081526020015f205f6101000a81548160ff0219169083151502179055508173ffffffffffffffffffffffffffffffffffffffff168373ffffffffffffffffffffffffffffffffffffffff167f17307eab39ab6107e8899845ad3d59bd9653f200f220920489ca2b5937696c318360405161410491906149c6565b60405180910390a3505050565b5f8373ffffffffffffffffffffffffffffffffffffffff163b11156142bd578273ffffffffffffffffffffffffffffffffffffffff1663150b7a026141546131f2565b8685856040518563ffffffff1660e01b81526004016141769493929190615d6f565b6020604051808303815f875af19250505080156141b157506040513d601f19601f820116820180604052508101906141ae9190615dcd565b60015b614232573d805f81146141df576040519150601f19603f3d011682016040523d82523d5f602084013e6141e4565b606091505b505f81510361422a57836040517f64a0ae920000000000000000000000000000000000000000000000000000000081526004016142219190614b26565b60405180910390fd5b805181602001fd5b63150b7a0260e01b7bffffffffffffffffffffffffffffffffffffffffffffffffffffffff1916817bffffffffffffffffffffffffffffffffffffffffffffffffffffffff1916146142bb57836040517f64a0ae920000000000000000000000000000000000000000000000000000000081526004016142b29190614b26565b60405180910390fd5b505b50505050565b606060405180602001604052805f815250905090565b60605f60016142e78461465e565b0190505f8167ffffffffffffffff811115614305576143046151a6565b5b6040519080825280601f01601f1916602001820160405280156143375781602001600182028036833780820191505090505b5090505f82602001820190505b600115614398578080600190039150507f3031323334353637383961626364656600000000000000000000000000000000600a86061a8153600a858161438d5761438c615df8565b5b0494505f8503614344575b819350505050919050565b5f60025f8381526020019081526020015f205f9054906101000a900473ffffffffffffffffffffffffffffffffffffffff169050919050565b808061441457505f73ffffffffffffffffffffffffffffffffffffffff168273ffffffffffffffffffffffffffffffffffffffff1614155b15614546575f61442384613133565b90505f73ffffffffffffffffffffffffffffffffffffffff168373ffffffffffffffffffffffffffffffffffffffff161415801561448d57508273ffffffffffffffffffffffffffffffffffffffff168173ffffffffffffffffffffffffffffffffffffffff1614155b80156144a0575061449e8184612da4565b155b156144e257826040517fa9fbf51f0000000000000000000000000000000000000000000000000000000081526004016144d99190614b26565b60405180910390fd5b811561454457838573ffffffffffffffffffffffffffffffffffffffff168273ffffffffffffffffffffffffffffffffffffffff167f8c5be1e5ebec7d5bd14f71427d1e84f3dd0314c0f7b2291e5b200ac8c7c3b92560405160405180910390a45b505b8360045f8581526020019081526020015f205f6101000a81548173ffffffffffffffffffffffffffffffffffffffff021916908373ffffffffffffffffffffffffffffffffffffffff16021790555050505050565b6145a68383836147af565b614659575f73ffffffffffffffffffffffffffffffffffffffff168373ffffffffffffffffffffffffffffffffffffffff160361461a57806040517f7e2732890000000000000000000000000000000000000000000000000000000081526004016146119190614ddc565b60405180910390fd5b81816040517f177e802f000000000000000000000000000000000000000000000000000000008152600401614650929190615e25565b60405180910390fd5b505050565b5f805f90507a184f03e93ff9f4daa797ed6e38ed64bf6a1f01000000000000000083106146ba577a184f03e93ff9f4daa797ed6e38ed64bf6a1f01000000000000000083816146b0576146af615df8565b5b0492506040810190505b6d04ee2d6d415b85acef810000000083106146f7576d04ee2d6d415b85acef810000000083816146ed576146ec615df8565b5b0492506020810190505b662386f26fc10000831061472657662386f26fc10000838161471c5761471b615df8565b5b0492506010810190505b6305f5e100831061474f576305f5e100838161474557614744615df8565b5b0492506008810190505b612710831061477457612710838161476a57614769615df8565b5b0492506004810190505b60648310614797576064838161478d5761478c615df8565b5b0492506002810190505b600a83106147a6576001810190505b80915050919050565b5f8073ffffffffffffffffffffffffffffffffffffffff168373ffffffffffffffffffffffffffffffffffffffff161415801561486657508273ffffffffffffffffffffffffffffffffffffffff168473ffffffffffffffffffffffffffffffffffffffff16148061482757506148268484612da4565b5b8061486557508273ffffffffffffffffffffffffffffffffffffffff1661484d836131b9565b73ffffffffffffffffffffffffffffffffffffffff16145b5b90509392505050565b6040518060a001604052805f151581526020015f73ffffffffffffffffffffffffffffffffffffffff1681526020015f81526020015f81526020015f81525090565b6040518060a001604052805f73ffffffffffffffffffffffffffffffffffffffff1681526020015f81526020015f81526020015f81526020015f151581525090565b60405180608001604052805f81526020015f81526020015f800b81526020015f800b81525090565b5f604051905090565b5f80fd5b5f80fd5b5f7fffffffff0000000000000000000000000000000000000000000000000000000082169050919050565b6149608161492c565b811461496a575f80fd5b50565b5f8135905061497b81614957565b92915050565b5f6020828403121561499657614995614924565b5b5f6149a38482850161496d565b91505092915050565b5f8115159050919050565b6149c0816149ac565b82525050565b5f6020820190506149d95f8301846149b7565b92915050565b5f81519050919050565b5f82825260208201905092915050565b5f5b83811015614a165780820151818401526020810190506149fb565b5f8484015250505050565b5f601f19601f8301169050919050565b5f614a3b826149df565b614a4581856149e9565b9350614a558185602086016149f9565b614a5e81614a21565b840191505092915050565b5f6020820190508181035f830152614a818184614a31565b905092915050565b5f819050919050565b614a9b81614a89565b8114614aa5575f80fd5b50565b5f81359050614ab681614a92565b92915050565b5f60208284031215614ad157614ad0614924565b5b5f614ade84828501614aa8565b91505092915050565b5f73ffffffffffffffffffffffffffffffffffffffff82169050919050565b5f614b1082614ae7565b9050919050565b614b2081614b06565b82525050565b5f602082019050614b395f830184614b17565b92915050565b614b4881614b06565b8114614b52575f80fd5b50565b5f81359050614b6381614b3f565b92915050565b5f8060408385031215614b7f57614b7e614924565b5b5f614b8c85828601614b55565b9250506020614b9d85828601614aa8565b9150509250929050565b5f8060408385031215614bbd57614bbc614924565b5b5f614bca85828601614aa8565b9250506020614bdb85828601614aa8565b9150509250929050565b5f805f60608486031215614bfc57614bfb614924565b5b5f614c0986828701614aa8565b9350506020614c1a86828701614b55565b9250506040614c2b86828701614aa8565b9150509250925092565b5f81519050919050565b5f82825260208201905092915050565b5f819050602082019050919050565b614c6781614b06565b82525050565b5f614c788383614c5e565b60208301905092915050565b5f602082019050919050565b5f614c9a82614c35565b614ca48185614c3f565b9350614caf83614c4f565b805f5b83811015614cdf578151614cc68882614c6d565b9750614cd183614c84565b925050600181019050614cb2565b5085935050505092915050565b5f6020820190508181035f830152614d048184614c90565b905092915050565b5f614d1682614ae7565b9050919050565b614d2681614d0c565b82525050565b614d3581614a89565b82525050565b5f60a082019050614d4e5f830188614d1d565b614d5b6020830187614d2c565b614d686040830186614d2c565b614d756060830185614d2c565b614d8260808301846149b7565b9695505050505050565b5f805f60608486031215614da357614da2614924565b5b5f614db086828701614b55565b9350506020614dc186828701614b55565b9250506040614dd286828701614aa8565b9150509250925092565b5f602082019050614def5f830184614d2c565b92915050565b5f60208284031215614e0a57614e09614924565b5b5f614e1784828501614b55565b91505092915050565b5f81519050919050565b5f82825260208201905092915050565b5f819050602082019050919050565b614e5281614a89565b82525050565b5f614e638383614e49565b60208301905092915050565b5f602082019050919050565b5f614e8582614e20565b614e8f8185614e2a565b9350614e9a83614e3a565b805f5b83811015614eca578151614eb18882614e58565b9750614ebc83614e6f565b925050600181019050614e9d565b5085935050505092915050565b5f6020820190508181035f830152614eef8184614e7b565b905092915050565b614f0081614d0c565b8114614f0a575f80fd5b50565b5f81359050614f1b81614ef7565b92915050565b5f815f0b9050919050565b614f3581614f21565b8114614f3f575f80fd5b50565b5f81359050614f5081614f2c565b92915050565b5f805f8060808587031215614f6e57614f6d614924565b5b5f614f7b87828801614f0d565b9450506020614f8c87828801614aa8565b9350506040614f9d87828801614f42565b9250506060614fae87828801614f42565b91505092959194509250565b5f8060408385031215614fd057614fcf614924565b5b5f614fdd85828601614aa8565b9250506020614fee85828601614b55565b9150509250929050565b615001816149ac565b82525050565b61501081614d0c565b82525050565b60a082015f82015161502a5f850182614ff8565b50602082015161503d6020850182615007565b5060408201516150506040850182614e49565b5060608201516150636060850182614e49565b5060808201516150766080850182614e49565b50505050565b5f60a08201905061508f5f830184615016565b92915050565b61509e816149ac565b81146150a8575f80fd5b50565b5f813590506150b981615095565b92915050565b5f80604083850312156150d5576150d4614924565b5b5f6150e285828601614b55565b92505060206150f3858286016150ab565b9150509250929050565b5f60a0820190506151105f8301886149b7565b61511d6020830187614d1d565b61512a6040830186614d2c565b6151376060830185614d2c565b6151446080830184614d2c565b9695505050505050565b5f805f6060848603121561516557615164614924565b5b5f61517286828701614aa8565b935050602061518386828701614aa8565b925050604061519486828701614aa8565b9150509250925092565b5f80fd5b5f80fd5b7f4e487b71000000000000000000000000000000000000000000000000000000005f52604160045260245ffd5b6151dc82614a21565b810181811067ffffffffffffffff821117156151fb576151fa6151a6565b5b80604052505050565b5f61520d61491b565b905061521982826151d3565b919050565b5f67ffffffffffffffff821115615238576152376151a6565b5b61524182614a21565b9050602081019050919050565b828183375f83830152505050565b5f61526e6152698461521e565b615204565b90508281526020810184848401111561528a576152896151a2565b5b61529584828561524e565b509392505050565b5f82601f8301126152b1576152b061519e565b5b81356152c184826020860161525c565b91505092915050565b5f805f80608085870312156152e2576152e1614924565b5b5f6152ef87828801614b55565b945050602061530087828801614b55565b935050604061531187828801614aa8565b925050606085013567ffffffffffffffff81111561533257615331614928565b5b61533e8782880161529d565b91505092959194509250565b61535381614f21565b82525050565b5f60808201905061536c5f830187614d2c565b6153796020830186614d2c565b615386604083018561534a565b615393606083018461534a565b95945050505050565b5f81519050919050565b5f82825260208201905092915050565b5f819050602082019050919050565b60a082015f8201516153d95f850182615007565b5060208201516153ec6020850182614e49565b5060408201516153ff6040850182614e49565b5060608201516154126060850182614e49565b5060808201516154256080850182614ff8565b50505050565b5f61543683836153c5565b60a08301905092915050565b5f602082019050919050565b5f6154588261539c565b61546281856153a6565b935061546d836153b6565b805f5b8381101561549d578151615484888261542b565b975061548f83615442565b925050600181019050615470565b5085935050505092915050565b5f6020820190508181035f8301526154c2818461544e565b905092915050565b6154d381614f21565b82525050565b608082015f8201516154ed5f850182614e49565b5060208201516155006020850182614e49565b50604082015161551360408501826154ca565b50606082015161552660608501826154ca565b50505050565b5f60808201905061553f5f8301846154d9565b92915050565b5f81519050919050565b5f82825260208201905092915050565b5f819050602082019050919050565b608082015f8201516155825f850182614e49565b5060208201516155956020850182614e49565b5060408201516155a860408501826154ca565b5060608201516155bb60608501826154ca565b50505050565b5f6155cc838361556e565b60808301905092915050565b5f602082019050919050565b5f6155ee82615545565b6155f8818561554f565b93506156038361555f565b805f5b8381101561563357815161561a88826155c1565b9750615625836155d8565b925050600181019050615606565b5085935050505092915050565b5f6020820190508181035f83015261565881846155e4565b905092915050565b5f806040838503121561567657615675614924565b5b5f61568385828601614b55565b925050602061569485828601614b55565b9150509250929050565b5f81519050919050565b5f82825260208201905092915050565b5f819050602082019050919050565b60a082015f8201516156db5f850182614ff8565b5060208201516156ee6020850182615007565b5060408201516157016040850182614e49565b5060608201516157146060850182614e49565b5060808201516157276080850182614e49565b50505050565b5f61573883836156c7565b60a08301905092915050565b5f602082019050919050565b5f61575a8261569e565b61576481856156a8565b935061576f836156b8565b805f5b8381101561579f578151615786888261572d565b975061579183615744565b925050600181019050615772565b5085935050505092915050565b5f6020820190508181035f8301526157c48184615750565b905092915050565b7f4e487b71000000000000000000000000000000000000000000000000000000005f52602260045260245ffd5b5f600282049050600182168061581057607f821691505b602082108103615823576158226157cc565b5b50919050565b7f5468652061736b6564204e465420646f65736e27742065786973742e000000005f82015250565b5f61585d601c836149e9565b915061586882615829565b602082019050919050565b5f6020820190508181035f83015261588a81615851565b9050919050565b7f4e487b71000000000000000000000000000000000000000000000000000000005f52601160045260245ffd5b5f6158c882614a89565b91506158d383614a89565b92508282019050808211156158eb576158ea615891565b5b92915050565b7f5468652061736b65642073616c6520646f65736e27742065786973742e0000005f82015250565b5f615925601d836149e9565b9150615930826158f1565b602082019050919050565b5f6020820190508181035f83015261595281615919565b9050919050565b7f4e6f7420656e6f7567682066756e647320666f722074686520646573697265645f8201527f204e465421000000000000000000000000000000000000000000000000000000602082015250565b5f6159b36025836149e9565b91506159be82615959565b604082019050919050565b5f6020820190508181035f8301526159e0816159a7565b9050919050565b5f6159f182614a89565b91506159fc83614a89565b9250828203905081811115615a1457615a13615891565b5b92915050565b5f606082019050615a2d5f830186614b17565b615a3a6020830185614d2c565b615a476040830184614b17565b949350505050565b5f615a5982614a89565b91507fffffffffffffffffffffffffffffffffffffffffffffffffffffffffffffffff8203615a8b57615a8a615891565b5b600182019050919050565b7f4e487b71000000000000000000000000000000000000000000000000000000005f52603260045260245ffd5b7f596f7520617265206e6f74206f6e6573206f6620746865206f776e657273206f5f8201527f66207468652061736b6564204e46542e00000000000000000000000000000000602082015250565b5f615b1d6030836149e9565b9150615b2882615ac3565b604082019050919050565b5f6020820190508181035f830152615b4a81615b11565b9050919050565b7f506c656173652063686f6f7365206120707269636520677265617465722074685f8201527f616e20302e000000000000000000000000000000000000000000000000000000602082015250565b5f615bab6025836149e9565b9150615bb682615b51565b604082019050919050565b5f6020820190508181035f830152615bd881615b9f565b9050919050565b7f54686520616d6f756e74206f662073686172657320746f2073656c6c20796f755f8201527f2077616e7420746f2073656c6c2069732067726561746572207468616e20746860208201527f6520617661696c61626c65207368617265732e00000000000000000000000000604082015250565b5f615c5f6053836149e9565b9150615c6a82615bdf565b606082019050919050565b5f6020820190508181035f830152615c8c81615c53565b9050919050565b5f81905092915050565b5f615ca7826149df565b615cb18185615c93565b9350615cc18185602086016149f9565b80840191505092915050565b5f615cd88285615c9d565b9150615ce48284615c9d565b91508190509392505050565b7f4e487b71000000000000000000000000000000000000000000000000000000005f52603160045260245ffd5b5f81519050919050565b5f82825260208201905092915050565b5f615d4182615d1d565b615d4b8185615d27565b9350615d5b8185602086016149f9565b615d6481614a21565b840191505092915050565b5f608082019050615d825f830187614b17565b615d8f6020830186614b17565b615d9c6040830185614d2c565b8181036060830152615dae8184615d37565b905095945050505050565b5f81519050615dc781614957565b92915050565b5f60208284031215615de257615de1614924565b5b5f615def84828501615db9565b91505092915050565b7f4e487b71000000000000000000000000000000000000000000000000000000005f52601260045260245ffd5b5f604082019050615e385f830185614b17565b615e456020830184614d2c565b939250505056fea2646970667358221220bd16b6dc894faf1945bbae35e0f62f5750ae9dc8f504556667287cee58d917e164736f6c63430008140033",
  "immutableReferences": {},
  "source": "// SPDX-License-Identifier: MIT\npragma solidity >=0.4.22 <0.9.0;\n\nimport '@openzeppelin/contracts/token/ERC721/ERC721.sol';\nimport '@openzeppelin/contracts/token/ERC721/extensions/ERC721URIStorage.sol';\nimport '@openzeppelin/contracts/access/Ownable.sol';\n\ncontract swapassets is ERC721, Ownable(msg.sender) {\n  \n  // This variable will be incremented at every mint\n  uint256 totalNumberOfNfts;\n\n  constructor() ERC721('TokenisationMarketplace', 'TMKP') {\n    totalNumberOfNfts = 0;\n  }\n\n  // Struct to set important data for each NFT\n  struct TokenInfos {\n    uint256 tokenId;\n    uint256 assetType;\n    int8 xPosition;\n    int8 yPosition;\n  }\n\n  // Struct about the infos of the owner of an NFT\n  struct OwnerInfos {\n    bool isOwner;\n    address payable owner;\n    uint256 shares;\n    uint256 sharesForSelling;\n    uint256 numTicket;\n  }\n\n  // Struct about the sales infos of an NFT\n  struct SaleInfos {\n    address payable owner;\n    uint256 saleTicketNumber;\n    uint256 price;\n    uint256 sharesToSell;\n    bool currentlyForSale;\n  }\n\n  // TOKEN INFOS\n  mapping(uint256 => TokenInfos) public allTokensInfos;\n\n  // OWNERS INFOS of an NFT\n  mapping(uint256 => mapping(address => OwnerInfos)) public nftsOwners;\n\n  // OWNERS LIST of an NFT\n  mapping(uint256 => address[]) public ownersList;\n\n  // SALES INFOS of an owner/nft\n  mapping(uint256 => mapping(address => mapping(uint256 => SaleInfos))) public salesListing;\n\n  // ALL ACTUAL SALES of an owner/nft \n  mapping(uint256 => mapping(address => uint256[])) public ownersSalesTicketsList;\n\n  // LIST OF NFTS OWNED BY AN USER\n  mapping(address => uint256[]) public nftsOwned;\n\n  // Only owner of the contract can mints tokens\n  function mint(address payable _to, uint256 _assetType, int8 _xPosition, int8 _yPosition) external onlyOwner {\n    // The newly nft is mint to the given address\n    _mint(_to, totalNumberOfNfts);\n\n    // Then NFT's infos are set\n    allTokensInfos[totalNumberOfNfts] = TokenInfos(\n      totalNumberOfNfts, // Token Id\n      _assetType,        // Asset type (house, buidling, store...)\n      _xPosition,\n      _yPosition\n    );\n\n    // The owner of the NFT is set\n    nftsOwners[totalNumberOfNfts][_to] = OwnerInfos (\n    true,\n    _to, // Owner'address\n    100, // Number of the share in %, it's 100% by default since there is only one owner at the mint    \n    100, // Shares for selling\n    0    // Number of sale's ticket so far \n    );\n\n    // The owner address is listed inside the ownersList of the NFT\n    ownersList[totalNumberOfNfts].push(_to);\n    \n    // Update the list of NFT owned by the user\n    nftsOwned[_to].push(totalNumberOfNfts);\n\n    // Update the totalNumberOfNfts\n    totalNumberOfNfts++ ;\n  }\n\n\n  // Function to transfer NFT to the exchange for selling and create a sale ticket\n  function listToExchange(uint _tokenId, uint _price, uint256 _sharesToSell) public {\n\n    // Check that the tokenId exist\n    require(_tokenId < totalNumberOfNfts, \"The asked NFT doesn't exist.\");\n\n    // Verify ownership\n    require(nftsOwners[_tokenId][msg.sender].isOwner == true, \"You are not ones of the owners of the asked NFT.\");\n\n    // Check that the price is greater than 0\n    require(_price > 0, \"Please choose a price greater than 0.\");\n\n    // Check that the seller has enough shares to sell\n    require(_sharesToSell <= nftsOwners[_tokenId][msg.sender].sharesForSelling, \"The amount of shares to sell you want to sell is greater than the available shares.\");\n\n    // Transfer the NFT to the smart contract if the shares of the owner is 100, otherwise, the NFT has been already sent to the smart contract\n    if(nftsOwners[_tokenId][msg.sender].sharesForSelling == 100) {\n    _transfer(msg.sender, address(this), _tokenId);\n    }\n\n    // Create the sale ticket's number\n    uint ticketNum = nftsOwners[_tokenId][msg.sender].numTicket;\n    ownersSalesTicketsList[_tokenId][msg.sender].push(ticketNum);\n\n    nftsOwners[_tokenId][msg.sender].numTicket += 1;\n\n    // Create the sale\n    salesListing[_tokenId][msg.sender][ticketNum] = SaleInfos  (\n      payable(msg.sender),\n      ticketNum,\n      _price,\n      _sharesToSell,\n      true\n    );\n\n    // Update the sharesForSelling of the owner\n    nftsOwners[_tokenId][msg.sender].sharesForSelling -= _sharesToSell;\n\n  }\n\n  // Function to buy a listed nft\n  function buyNFT(uint256 _tokenId, address _sellerAddress, uint256 _saleTicket ) public payable  {\n    // Check that the tokenId exist\n    require(_tokenId < totalNumberOfNfts, \"The asked NFT doesn't exist.\");\n\n    // Check if the sales exist\n    require(salesListing[_tokenId][_sellerAddress][_saleTicket].currentlyForSale == true, \"The asked sale doesn't exist.\");\n\n    // Then we check if the msg.sender send enough funds\n    require(salesListing[_tokenId][_sellerAddress][_saleTicket].price == msg.value, \"Not enough funds for the desired NFT!\");\n\n    // Get the seller address\n    address payable seller = salesListing[_tokenId][_sellerAddress][_saleTicket].owner;\n\n    // Update sale's infos\n    salesListing[_tokenId][_sellerAddress][_saleTicket].currentlyForSale = false;\n    \n    // Update the shares of the seller\n    uint256 sharesSelling = salesListing[_tokenId][_sellerAddress][_saleTicket].sharesToSell;\n    nftsOwners[_tokenId][seller].shares -= sharesSelling;\n\n    // if the seller shares = 0, remove his ownership and his belonging in the ownerList\n    if(nftsOwners[_tokenId][seller].shares ==0){\n    nftsOwners[_tokenId][seller].isOwner = false;\n    }\n\n    // Update the shares of the buyer\n    nftsOwners[_tokenId][msg.sender].shares += sharesSelling;\n    nftsOwners[_tokenId][msg.sender].sharesForSelling += sharesSelling;\n\n    // Delete the sale ticket from the list of salesTicket\n    deleteTicket(_tokenId, seller, _saleTicket );\n\n    // MULTIPLES CASES :\n\n    // If the buyer is a new owner of the NFT\n    if(nftsOwners[_tokenId][msg.sender].isOwner == false)\n    {\n      // If the seller is still an owner of the NFT\n      if(nftsOwners[_tokenId][seller].isOwner == true)\n      {\n        // Add the new owner to the ownersList and updates his infos\n        nftsOwners[_tokenId][msg.sender].isOwner = true;\n        nftsOwners[_tokenId][msg.sender].owner = payable(msg.sender);\n\n        ownersList[_tokenId].push(msg.sender);\n        nftsOwned[msg.sender].push(_tokenId);\n      }\n\n      // If the seller is not an owner anymore\n      else if(nftsOwners[_tokenId][seller].isOwner == false)\n      {\n\n        // Remove him from the ownersList\n        deleteOwner(_tokenId,seller);\n\n        // Remove the nft from his nftsOwned list\n        deleteNftOwned(_tokenId, seller);\n\n        // Add the new owner to the ownersList and updates his infos\n        nftsOwners[_tokenId][msg.sender].isOwner = true;\n        nftsOwners[_tokenId][msg.sender].owner = payable(msg.sender);\n\n        ownersList[_tokenId].push(msg.sender);\n        nftsOwned[msg.sender].push(_tokenId);\n      }\n    }\n\n    // If the buyer is already an owner of the NFT\n    else if(nftsOwners[_tokenId][msg.sender].isOwner == true)\n    {\n      // If the seller is an owner too, no changes\n\n      // If the seller is not an owner anymore\n      if(nftsOwners[_tokenId][seller].isOwner == false)\n      {\n        // Remove him from the ownersList\n        deleteOwner(_tokenId,seller);\n\n        // Remove the nft from his nftsOwned list\n        deleteNftOwned(_tokenId, seller);\n      }\n    }\n\n    // Pay the seller\n    payable(seller).transfer(salesListing[_tokenId][_sellerAddress][_saleTicket].price);\n    \n    // If the newly owner own 100% of the shares, the nft can be send to him\n    if(nftsOwners[_tokenId][msg.sender].shares == 100){\n    _transfer(address(this), msg.sender, _tokenId);\n    }\n    \n  }\n\n  // Function to cancel a sale\n  function cancelSale(uint256 _tokenId, uint256 _saleNumber) public {\n\n    // Check that the tokenId exist\n    require(_tokenId < totalNumberOfNfts, \"The asked NFT doesn't exist.\");\n\n    // Check the ownership of the sale\n    require(salesListing[_tokenId][msg.sender][_saleNumber].owner == msg.sender);\n\n    // Cancel the sale\n    salesListing[_tokenId][msg.sender][_saleNumber].currentlyForSale = false;\n\n    // Update the sharesForSelling\n    uint sharesSelling = salesListing[_tokenId][msg.sender][_saleNumber].sharesToSell;\n    nftsOwners[_tokenId][msg.sender].sharesForSelling += sharesSelling;\n\n    // Delete the sale ticket from the list of salesTicket\n    deleteTicket(_tokenId, salesListing[_tokenId][msg.sender][_saleNumber].owner, _saleNumber );\n\n    // Transfer the NFT to the owner\n    _transfer(address(this), msg.sender, _tokenId);\n  }\n\n\n  // Delete an owner from array + reorganise if necessary\n  function deleteOwner(uint256 _tokenId, address _owner) private {\n\n    // Get the index of the owner\n    uint length = ownersList[_tokenId].length;\n    uint index;\n\n    // Get the index of the owner\n    for(uint256 i = 0; i < length; i++) {\n      if(ownersList[_tokenId][i] == _owner) {\n        index = i;\n      }\n    }\n\n    // Check if the owner was the most recent owner, if not reorganise array after delete\n    if((length -1) == index)\n    {\n      ownersList[_tokenId].pop();\n    }\n    else\n    {\n      for (uint i = index; i<length-1; i++){\n            ownersList[_tokenId][i] = ownersList[_tokenId][i+1];\n        }\n        ownersList[_tokenId].pop();\n    }\n  }\n\n  // Function to delete a ticket sale + reorganise array if necessary\n  function deleteTicket(uint256 _tokenId, address _owner, uint256 _ticketNumber) private {\n    \n    // Get the index of the ticket\n    uint length = ownersSalesTicketsList[_tokenId][_owner].length;\n    uint index;\n\n    // Get the index of the sale ticket\n    for(uint256 i = 0; i < length; i++) {\n      if(ownersSalesTicketsList[_tokenId][_owner][i] == _ticketNumber) {\n        index = i;\n      }\n    }\n\n    // Check if the ticket was the most recent, if not reorganise array after delete\n    if((length -1) == index)\n    {\n      ownersSalesTicketsList[_tokenId][_owner].pop();\n    }\n    else\n    {\n      for (uint i = index; i<length-1; i++){\n            ownersSalesTicketsList[_tokenId][_owner][i] = ownersSalesTicketsList[_tokenId][_owner][i+1];\n        }\n        ownersSalesTicketsList[_tokenId][_owner].pop();\n    }\n\n  }\n\n  // Function to delete the list of nfts owned by the an user\n  function deleteNftOwned(uint256 _tokenId, address _owner) private {\n\n    // Get the index of the nft\n    uint length = nftsOwned[_owner].length;\n    uint index;\n\n    // Get the index of the nft\n    for(uint256 i = 0; i < length; i++) {\n      if(nftsOwned[_owner][i] == _tokenId) {\n        index = i;\n      }\n\n    // Check if the nft was the most recent, if not reorganise array after delete\n    if((length -1) == index)\n    {\n      nftsOwned[_owner].pop();\n    }\n    else\n    {\n      for (uint p = index; p<length-1; p++){\n          nftsOwned[_owner][p] = nftsOwned[_owner][p+1];\n        }\n        nftsOwned[_owner].pop();\n    }\n    \n  }\n\n}\n\n  // FRONTEND FUNCTIONS\n\n  // NFTS INFOS\n  function getTotalNumberOfNfts() public view returns (uint){\n    return totalNumberOfNfts;\n  }\n  \n  function getAllNFTsInfos() public view returns (TokenInfos[] memory) {\n    TokenInfos[] memory tokens = new TokenInfos[](totalNumberOfNfts);\n    \n    for(uint i=0; i<totalNumberOfNfts; i++) {\n      TokenInfos storage currentNft = allTokensInfos[i];\n      tokens[i] = currentNft;\n    }\n\n    return tokens;\n  }\n\n  function getTokenInfoForId (uint256 _tokenId) public view returns(TokenInfos memory) {\n    return allTokensInfos[_tokenId];\n\n  }\n\n  function getNftOwnerList(uint _tokenId) public view returns (address[] memory){\n    return ownersList[_tokenId];\n  }\n  \n  // OWNERS INFOS\n  function getNftsOwners(uint256 _tokenId) public view returns(OwnerInfos[] memory) {\n\n    uint256 numberOfOwners = ownersList[_tokenId].length;\n\n    // Create an OwnerInfos struct array with the size of the number of owners from ownersList\n    OwnerInfos[] memory ownersArray = new OwnerInfos[](numberOfOwners);\n\n    // For every owners, get their infos\n    for(uint i = 0; i<numberOfOwners; i++) {\n      address currentAddress = ownersList[_tokenId][i];\n\n      ownersArray[i] = nftsOwners[_tokenId][currentAddress];\n    }\n\n    return ownersArray;\n  } \n\n  function getOwnerInfos(uint _tokenId, address _owner) public view returns (OwnerInfos memory) {\n    return nftsOwners[_tokenId][_owner];\n  }\n\n  function getNumberOfOwners(uint256 _tokenId) public view returns(uint) {\n    return ownersList[_tokenId].length;\n  }\n\n  // SALES INFOS\n  function getSalesInfos(uint256 _tokenId, address _owner) public view returns(SaleInfos[] memory) {\n\n    uint256 numberOfSales = ownersSalesTicketsList[_tokenId][_owner].length;\n\n    // Create an SaleInfos struct array with the size of the number of sales from ownersSalesTicketsList\n    SaleInfos[] memory salesArray = new SaleInfos[](numberOfSales);\n\n    // For every sale, get their infos\n    for(uint i = 0; i<numberOfSales; i++) {\n      uint256 currentTicketNumber = ownersSalesTicketsList[_tokenId][_owner][i];\n\n      salesArray[i] = salesListing[_tokenId][_owner][currentTicketNumber];\n    }\n\n    return salesArray;\n  } \n\n    function getNumberSalesOwner(uint256 _tokenId, address _owner) public view returns(uint) {\n    return ownersSalesTicketsList[_tokenId][_owner].length;\n  }\n\n  function getTotalNumberOfTicketsForNft(uint _tokenId) public view returns(uint) {\n    uint totalCount = 0;\n\n    for(uint i = 0; i < getNumberOfOwners(_tokenId); i++) {\n\n      for(uint j = 0; j < getNumberSalesOwner(_tokenId, ownersList[_tokenId][i]); j++){\n        totalCount += 1;\n      }\n    }\n    return totalCount;\n  }\n\n    // LIST OF NFTS OWNED BY AN ADDRESS\n  function getListOfNftsOwned(address _owner) public view returns(uint256[] memory) {\n\n    uint256 numberOfNfts = nftsOwned[_owner].length;\n\n    // Create the array of nfts owned\n    uint256[] memory nftsOwnedArray = new uint256[](numberOfNfts);\n\n    nftsOwnedArray = nftsOwned[_owner];\n\n    return nftsOwnedArray;\n  } \n}",
  "sourcePath": "C:\\Users\\One\\Desktop\\Projet Tokenisation\\SmartContract\\contracts\\swapassets.sol",
  "compiler": {
    "name": "solc",
    "version": "0.8.20+commit.a1b79de6.Emscripten.clang"
  },
  "schemaVersion": "3.4.16",
  "updatedAt": "2024-03-26T20:36:21.152Z",
  "devdoc": {
    "errors": {
      "ERC721IncorrectOwner(address,uint256,address)": [
        {
          "details": "Indicates an error related to the ownership over a particular token. Used in transfers.",
          "params": {
            "owner": "Address of the current owner of a token.",
            "sender": "Address whose tokens are being transferred.",
            "tokenId": "Identifier number of a token."
          }
        }
      ],
      "ERC721InsufficientApproval(address,uint256)": [
        {
          "details": "Indicates a failure with the `operator`s approval. Used in transfers.",
          "params": {
            "operator": "Address that may be allowed to operate on tokens without being their owner.",
            "tokenId": "Identifier number of a token."
          }
        }
      ],
      "ERC721InvalidApprover(address)": [
        {
          "details": "Indicates a failure with the `approver` of a token to be approved. Used in approvals.",
          "params": {
            "approver": "Address initiating an approval operation."
          }
        }
      ],
      "ERC721InvalidOperator(address)": [
        {
          "details": "Indicates a failure with the `operator` to be approved. Used in approvals.",
          "params": {
            "operator": "Address that may be allowed to operate on tokens without being their owner."
          }
        }
      ],
      "ERC721InvalidOwner(address)": [
        {
          "details": "Indicates that an address can't be an owner. For example, `address(0)` is a forbidden owner in EIP-20. Used in balance queries.",
          "params": {
            "owner": "Address of the current owner of a token."
          }
        }
      ],
      "ERC721InvalidReceiver(address)": [
        {
          "details": "Indicates a failure with the token `receiver`. Used in transfers.",
          "params": {
            "receiver": "Address to which tokens are being transferred."
          }
        }
      ],
      "ERC721InvalidSender(address)": [
        {
          "details": "Indicates a failure with the token `sender`. Used in transfers.",
          "params": {
            "sender": "Address whose tokens are being transferred."
          }
        }
      ],
      "ERC721NonexistentToken(uint256)": [
        {
          "details": "Indicates a `tokenId` whose `owner` is the zero address.",
          "params": {
            "tokenId": "Identifier number of a token."
          }
        }
      ],
      "OwnableInvalidOwner(address)": [
        {
          "details": "The owner is not a valid owner account. (eg. `address(0)`)"
        }
      ],
      "OwnableUnauthorizedAccount(address)": [
        {
          "details": "The caller account is not authorized to perform an operation."
        }
      ]
    },
    "events": {
      "Approval(address,address,uint256)": {
        "details": "Emitted when `owner` enables `approved` to manage the `tokenId` token."
      },
      "ApprovalForAll(address,address,bool)": {
        "details": "Emitted when `owner` enables or disables (`approved`) `operator` to manage all of its assets."
      },
      "Transfer(address,address,uint256)": {
        "details": "Emitted when `tokenId` token is transferred from `from` to `to`."
      }
    },
    "kind": "dev",
    "methods": {
      "approve(address,uint256)": {
        "details": "See {IERC721-approve}."
      },
      "balanceOf(address)": {
        "details": "See {IERC721-balanceOf}."
      },
      "getApproved(uint256)": {
        "details": "See {IERC721-getApproved}."
      },
      "isApprovedForAll(address,address)": {
        "details": "See {IERC721-isApprovedForAll}."
      },
      "name()": {
        "details": "See {IERC721Metadata-name}."
      },
      "owner()": {
        "details": "Returns the address of the current owner."
      },
      "ownerOf(uint256)": {
        "details": "See {IERC721-ownerOf}."
      },
      "renounceOwnership()": {
        "details": "Leaves the contract without owner. It will not be possible to call `onlyOwner` functions. Can only be called by the current owner. NOTE: Renouncing ownership will leave the contract without an owner, thereby disabling any functionality that is only available to the owner."
      },
      "safeTransferFrom(address,address,uint256)": {
        "details": "See {IERC721-safeTransferFrom}."
      },
      "safeTransferFrom(address,address,uint256,bytes)": {
        "details": "See {IERC721-safeTransferFrom}."
      },
      "setApprovalForAll(address,bool)": {
        "details": "See {IERC721-setApprovalForAll}."
      },
      "supportsInterface(bytes4)": {
        "details": "See {IERC165-supportsInterface}."
      },
      "symbol()": {
        "details": "See {IERC721Metadata-symbol}."
      },
      "tokenURI(uint256)": {
        "details": "See {IERC721Metadata-tokenURI}."
      },
      "transferFrom(address,address,uint256)": {
        "details": "See {IERC721-transferFrom}."
      },
      "transferOwnership(address)": {
        "details": "Transfers ownership of the contract to a new account (`newOwner`). Can only be called by the current owner."
      }
    },
    "version": 1
  },
  "userdoc": {
    "kind": "user",
    "methods": {},
    "version": 1
  }
}